{
  "_format": "hh-sol-artifact-1",
  "contractName": "AvaJarvis",
  "sourceName": "contracts/AvaNft.sol",
  "abi": [
    {
      "inputs": [
        {
          "internalType": "string",
          "name": "uri",
          "type": "string"
        },
        {
          "internalType": "address",
          "name": "_ADDRESS_OG",
          "type": "address"
        },
        {
          "internalType": "address",
          "name": "_ADDRESS_WL",
          "type": "address"
        }
      ],
      "stateMutability": "nonpayable",
      "type": "constructor"
    },
    {
      "anonymous": false,
      "inputs": [
        {
          "indexed": true,
          "internalType": "address",
          "name": "owner",
          "type": "address"
        },
        {
          "indexed": true,
          "internalType": "address",
          "name": "approved",
          "type": "address"
        },
        {
          "indexed": true,
          "internalType": "uint256",
          "name": "tokenId",
          "type": "uint256"
        }
      ],
      "name": "Approval",
      "type": "event"
    },
    {
      "anonymous": false,
      "inputs": [
        {
          "indexed": true,
          "internalType": "address",
          "name": "owner",
          "type": "address"
        },
        {
          "indexed": true,
          "internalType": "address",
          "name": "operator",
          "type": "address"
        },
        {
          "indexed": false,
          "internalType": "bool",
          "name": "approved",
          "type": "bool"
        }
      ],
      "name": "ApprovalForAll",
      "type": "event"
    },
    {
      "anonymous": false,
      "inputs": [
        {
          "indexed": true,
          "internalType": "address",
          "name": "previousOwner",
          "type": "address"
        },
        {
          "indexed": true,
          "internalType": "address",
          "name": "newOwner",
          "type": "address"
        }
      ],
      "name": "OwnershipTransferred",
      "type": "event"
    },
    {
      "anonymous": false,
      "inputs": [
        {
          "indexed": false,
          "internalType": "address",
          "name": "account",
          "type": "address"
        }
      ],
      "name": "Paused",
      "type": "event"
    },
    {
      "anonymous": false,
      "inputs": [
        {
          "indexed": true,
          "internalType": "address",
          "name": "from",
          "type": "address"
        },
        {
          "indexed": true,
          "internalType": "address",
          "name": "to",
          "type": "address"
        },
        {
          "indexed": true,
          "internalType": "uint256",
          "name": "tokenId",
          "type": "uint256"
        }
      ],
      "name": "Transfer",
      "type": "event"
    },
    {
      "anonymous": false,
      "inputs": [
        {
          "indexed": false,
          "internalType": "address",
          "name": "account",
          "type": "address"
        }
      ],
      "name": "Unpaused",
      "type": "event"
    },
    {
      "inputs": [
        {
          "internalType": "bytes",
          "name": "signature",
          "type": "bytes"
        }
      ],
      "name": "_verify",
      "outputs": [
        {
          "internalType": "bool",
          "name": "",
          "type": "bool"
        }
      ],
      "stateMutability": "view",
      "type": "function"
    },
    {
      "inputs": [
        {
          "internalType": "address",
          "name": "to",
          "type": "address"
        },
        {
          "internalType": "uint256",
          "name": "tokenId",
          "type": "uint256"
        }
      ],
      "name": "approve",
      "outputs": [],
      "stateMutability": "nonpayable",
      "type": "function"
    },
    {
      "inputs": [
        {
          "internalType": "address",
          "name": "owner",
          "type": "address"
        }
      ],
      "name": "balanceOf",
      "outputs": [
        {
          "internalType": "uint256",
          "name": "",
          "type": "uint256"
        }
      ],
      "stateMutability": "view",
      "type": "function"
    },
    {
      "inputs": [
        {
          "internalType": "uint256",
          "name": "tokenId",
          "type": "uint256"
        }
      ],
      "name": "burn",
      "outputs": [],
      "stateMutability": "nonpayable",
      "type": "function"
    },
    {
      "inputs": [
        {
          "internalType": "enum AvaJarvis.STATUS_LIST",
          "name": "new_status",
          "type": "uint8"
        }
      ],
      "name": "changeStatusOwner",
      "outputs": [],
      "stateMutability": "nonpayable",
      "type": "function"
    },
    {
      "inputs": [
        {
          "internalType": "uint256",
          "name": "tokenId",
          "type": "uint256"
        }
      ],
      "name": "getApproved",
      "outputs": [
        {
          "internalType": "address",
          "name": "",
          "type": "address"
        }
      ],
      "stateMutability": "view",
      "type": "function"
    },
    {
      "inputs": [],
      "name": "getTotalSupply",
      "outputs": [
        {
          "internalType": "uint256",
          "name": "",
          "type": "uint256"
        }
      ],
      "stateMutability": "view",
      "type": "function"
    },
    {
      "inputs": [
        {
          "internalType": "address",
          "name": "owner",
          "type": "address"
        },
        {
          "internalType": "address",
          "name": "operator",
          "type": "address"
        }
      ],
      "name": "isApprovedForAll",
      "outputs": [
        {
          "internalType": "bool",
          "name": "",
          "type": "bool"
        }
      ],
      "stateMutability": "view",
      "type": "function"
    },
    {
      "inputs": [
        {
          "internalType": "uint256",
          "name": "_count",
          "type": "uint256"
        },
        {
          "internalType": "bytes",
          "name": "signature",
          "type": "bytes"
        }
      ],
      "name": "mintJarvis",
      "outputs": [],
      "stateMutability": "payable",
      "type": "function"
    },
    {
      "inputs": [],
      "name": "name",
      "outputs": [
        {
          "internalType": "string",
          "name": "",
          "type": "string"
        }
      ],
      "stateMutability": "view",
      "type": "function"
    },
    {
      "inputs": [],
      "name": "owner",
      "outputs": [
        {
          "internalType": "address",
          "name": "",
          "type": "address"
        }
      ],
      "stateMutability": "view",
      "type": "function"
    },
    {
      "inputs": [
        {
          "internalType": "uint256",
          "name": "tokenId",
          "type": "uint256"
        }
      ],
      "name": "ownerOf",
      "outputs": [
        {
          "internalType": "address",
          "name": "",
          "type": "address"
        }
      ],
      "stateMutability": "view",
      "type": "function"
    },
    {
      "inputs": [],
      "name": "pause",
      "outputs": [],
      "stateMutability": "nonpayable",
      "type": "function"
    },
    {
      "inputs": [],
      "name": "paused",
      "outputs": [
        {
          "internalType": "bool",
          "name": "",
          "type": "bool"
        }
      ],
      "stateMutability": "view",
      "type": "function"
    },
    {
      "inputs": [
        {
          "internalType": "address",
          "name": "",
          "type": "address"
        }
      ],
      "name": "publicPermission",
      "outputs": [
        {
          "internalType": "bool",
          "name": "",
          "type": "bool"
        }
      ],
      "stateMutability": "view",
      "type": "function"
    },
    {
      "inputs": [],
      "name": "renounceOwnership",
      "outputs": [],
      "stateMutability": "nonpayable",
      "type": "function"
    },
    {
      "inputs": [
        {
          "internalType": "address",
          "name": "from",
          "type": "address"
        },
        {
          "internalType": "address",
          "name": "to",
          "type": "address"
        },
        {
          "internalType": "uint256",
          "name": "tokenId",
          "type": "uint256"
        }
      ],
      "name": "safeTransferFrom",
      "outputs": [],
      "stateMutability": "nonpayable",
      "type": "function"
    },
    {
      "inputs": [
        {
          "internalType": "address",
          "name": "from",
          "type": "address"
        },
        {
          "internalType": "address",
          "name": "to",
          "type": "address"
        },
        {
          "internalType": "uint256",
          "name": "tokenId",
          "type": "uint256"
        },
        {
          "internalType": "bytes",
          "name": "data",
          "type": "bytes"
        }
      ],
      "name": "safeTransferFrom",
      "outputs": [],
      "stateMutability": "nonpayable",
      "type": "function"
    },
    {
      "inputs": [
        {
          "internalType": "address",
          "name": "operator",
          "type": "address"
        },
        {
          "internalType": "bool",
          "name": "approved",
          "type": "bool"
        }
      ],
      "name": "setApprovalForAll",
      "outputs": [],
      "stateMutability": "nonpayable",
      "type": "function"
    },
    {
      "inputs": [
        {
          "internalType": "string",
          "name": "_uri",
          "type": "string"
        }
      ],
      "name": "setBaseUri",
      "outputs": [],
      "stateMutability": "nonpayable",
      "type": "function"
    },
    {
      "inputs": [],
      "name": "status",
      "outputs": [
        {
          "internalType": "enum AvaJarvis.STATUS_LIST",
          "name": "",
          "type": "uint8"
        }
      ],
      "stateMutability": "view",
      "type": "function"
    },
    {
      "inputs": [
        {
          "internalType": "bytes4",
          "name": "interfaceId",
          "type": "bytes4"
        }
      ],
      "name": "supportsInterface",
      "outputs": [
        {
          "internalType": "bool",
          "name": "",
          "type": "bool"
        }
      ],
      "stateMutability": "view",
      "type": "function"
    },
    {
      "inputs": [],
      "name": "symbol",
      "outputs": [
        {
          "internalType": "string",
          "name": "",
          "type": "string"
        }
      ],
      "stateMutability": "view",
      "type": "function"
    },
    {
      "inputs": [
        {
          "internalType": "uint256",
          "name": "index",
          "type": "uint256"
        }
      ],
      "name": "tokenByIndex",
      "outputs": [
        {
          "internalType": "uint256",
          "name": "",
          "type": "uint256"
        }
      ],
      "stateMutability": "view",
      "type": "function"
    },
    {
      "inputs": [
        {
          "internalType": "address",
          "name": "owner",
          "type": "address"
        },
        {
          "internalType": "uint256",
          "name": "index",
          "type": "uint256"
        }
      ],
      "name": "tokenOfOwnerByIndex",
      "outputs": [
        {
          "internalType": "uint256",
          "name": "",
          "type": "uint256"
        }
      ],
      "stateMutability": "view",
      "type": "function"
    },
    {
      "inputs": [
        {
          "internalType": "uint256",
          "name": "tokenId",
          "type": "uint256"
        }
      ],
      "name": "tokenURI",
      "outputs": [
        {
          "internalType": "string",
          "name": "",
          "type": "string"
        }
      ],
      "stateMutability": "view",
      "type": "function"
    },
    {
      "inputs": [],
      "name": "totalSupply",
      "outputs": [
        {
          "internalType": "uint256",
          "name": "",
          "type": "uint256"
        }
      ],
      "stateMutability": "view",
      "type": "function"
    },
    {
      "inputs": [
        {
          "internalType": "address",
          "name": "from",
          "type": "address"
        },
        {
          "internalType": "address",
          "name": "to",
          "type": "address"
        },
        {
          "internalType": "uint256",
          "name": "tokenId",
          "type": "uint256"
        }
      ],
      "name": "transferFrom",
      "outputs": [],
      "stateMutability": "nonpayable",
      "type": "function"
    },
    {
      "inputs": [
        {
          "internalType": "address",
          "name": "newOwner",
          "type": "address"
        }
      ],
      "name": "transferOwnership",
      "outputs": [],
      "stateMutability": "nonpayable",
      "type": "function"
    },
    {
      "inputs": [],
      "name": "unpause",
      "outputs": [],
      "stateMutability": "nonpayable",
      "type": "function"
    },
    {
      "inputs": [
        {
          "internalType": "address",
          "name": "",
          "type": "address"
        }
      ],
      "name": "wlPermission",
      "outputs": [
        {
          "internalType": "bool",
          "name": "",
          "type": "bool"
        }
      ],
      "stateMutability": "view",
      "type": "function"
    }
  ],
  "bytecode": "0x6080604052600f805460ff60a01b191690553480156200001e57600080fd5b506040516200354138038062003541833981016040819052620000419162000205565b604051806040016040528060098152602001684176614a617276697360b81b8152506040518060400160405280600381526020016220ab2560e91b815250816000908162000090919062000397565b5060016200009f828262000397565b5050600b805460ff1916905550620000b733620000f5565b620000c2836200014f565b600e80546001600160a01b039384166001600160a01b031991821617909155600f80549290931691161790555062000463565b600b80546001600160a01b03838116610100818102610100600160a81b031985161790945560405193909204169182907f8be0079c531659141344cd1fd0a4f28419497f9722a3daafe3b4186f6b6457e090600090a35050565b620001596200016b565b600d62000167828262000397565b5050565b600b546001600160a01b03610100909104163314620001d05760405162461bcd60e51b815260206004820181905260248201527f4f776e61626c653a2063616c6c6572206973206e6f7420746865206f776e6572604482015260640160405180910390fd5b565b634e487b7160e01b600052604160045260246000fd5b80516001600160a01b03811681146200020057600080fd5b919050565b6000806000606084860312156200021b57600080fd5b83516001600160401b03808211156200023357600080fd5b818601915086601f8301126200024857600080fd5b8151818111156200025d576200025d620001d2565b604051601f8201601f19908116603f01168101908382118183101715620002885762000288620001d2565b81604052828152602093508984848701011115620002a557600080fd5b600091505b82821015620002c95784820184015181830185015290830190620002aa565b82821115620002db5760008484830101525b9650620002ed915050868201620001e8565b93505050620002ff60408501620001e8565b90509250925092565b600181811c908216806200031d57607f821691505b6020821081036200033e57634e487b7160e01b600052602260045260246000fd5b50919050565b601f8211156200039257600081815260208120601f850160051c810160208610156200036d5750805b601f850160051c820191505b818110156200038e5782815560010162000379565b5050505b505050565b81516001600160401b03811115620003b357620003b3620001d2565b620003cb81620003c4845462000308565b8462000344565b602080601f831160018114620004035760008415620003ea5750858301515b600019600386901b1c1916600185901b1785556200038e565b600085815260208120601f198616915b82811015620004345788860151825594840194600190910190840162000413565b5085821015620004535787850151600019600388901b60f8161c191681555b5050505050600190811b01905550565b6130ce80620004736000396000f3fe6080604052600436106101d85760003560e01c80636352211e11610102578063a22cb46511610095578063c87b56dd11610064578063c87b56dd14610552578063e985e9c514610572578063f2fde38b146105bb578063fbcbf3cb146105db57600080fd5b8063a22cb465146104dd578063aa80391b146104fd578063b88d4fde1461051d578063c4e41b221461053d57600080fd5b806389c7ee2c116100d157806389c7ee2c146104725780638da5cb5b1461048557806395d89b41146104a8578063a0bcfc7f146104bd57600080fd5b80636352211e1461040857806370a0823114610428578063715018a6146104485780638456cb591461045d57600080fd5b80632961fcdb1161017a57806342966c681161014957806342966c68146103805780634f6ccce7146103a0578063514f5b2c146103c05780635c975abb146103f057600080fd5b80632961fcdb146102fb5780632f745c591461032b5780633f4ba83a1461034b57806342842e0e1461036057600080fd5b8063095ea7b3116101b6578063095ea7b31461026c57806318160ddd1461028e578063200d2ed2146102ad57806323b872dd146102db57600080fd5b806301ffc9a7146101dd57806306fdde0314610212578063081812fc14610234575b600080fd5b3480156101e957600080fd5b506101fd6101f83660046129fb565b6105fb565b60405190151581526020015b60405180910390f35b34801561021e57600080fd5b5061022761060c565b6040516102099190612a70565b34801561024057600080fd5b5061025461024f366004612a83565b61069e565b6040516001600160a01b039091168152602001610209565b34801561027857600080fd5b5061028c610287366004612ab8565b6106c5565b005b34801561029a57600080fd5b506008545b604051908152602001610209565b3480156102b957600080fd5b50600f546102ce90600160a01b900460ff1681565b6040516102099190612af8565b3480156102e757600080fd5b5061028c6102f6366004612b20565b6107fb565b34801561030757600080fd5b506101fd610316366004612b5c565b60116020526000908152604090205460ff1681565b34801561033757600080fd5b5061029f610346366004612ab8565b610883565b34801561035757600080fd5b5061028c61092b565b34801561036c57600080fd5b5061028c61037b366004612b20565b61093d565b34801561038c57600080fd5b5061028c61039b366004612a83565b610958565b3480156103ac57600080fd5b5061029f6103bb366004612a83565b6109df565b3480156103cc57600080fd5b506101fd6103db366004612b5c565b60106020526000908152604090205460ff1681565b3480156103fc57600080fd5b50600b5460ff166101fd565b34801561041457600080fd5b50610254610423366004612a83565b610a83565b34801561043457600080fd5b5061029f610443366004612b5c565b610ae8565b34801561045457600080fd5b5061028c610b82565b34801561046957600080fd5b5061028c610b94565b61028c610480366004612c23565b610ba4565b34801561049157600080fd5b50600b5461010090046001600160a01b0316610254565b3480156104b457600080fd5b506102276111d5565b3480156104c957600080fd5b5061028c6104d8366004612c6a565b6111e4565b3480156104e957600080fd5b5061028c6104f8366004612cb3565b6111fc565b34801561050957600080fd5b5061028c610518366004612cef565b611207565b34801561052957600080fd5b5061028c610538366004612d10565b611218565b34801561054957600080fd5b5061029f6112a0565b34801561055e57600080fd5b5061022761056d366004612a83565b6112b0565b34801561057e57600080fd5b506101fd61058d366004612d78565b6001600160a01b03918216600090815260056020908152604080832093909416825291909152205460ff1690565b3480156105c757600080fd5b5061028c6105d6366004612b5c565b6112bb565b3480156105e757600080fd5b506101fd6105f6366004612dab565b611348565b600061060682611481565b92915050565b60606000805461061b90612de0565b80601f016020809104026020016040519081016040528092919081815260200182805461064790612de0565b80156106945780601f1061066957610100808354040283529160200191610694565b820191906000526020600020905b81548152906001019060200180831161067757829003601f168201915b5050505050905090565b60006106a9826114d7565b506000908152600460205260409020546001600160a01b031690565b60006106d082610a83565b9050806001600160a01b0316836001600160a01b03160361075e5760405162461bcd60e51b815260206004820152602160248201527f4552433732313a20617070726f76616c20746f2063757272656e74206f776e6560448201527f720000000000000000000000000000000000000000000000000000000000000060648201526084015b60405180910390fd5b336001600160a01b038216148061077a575061077a813361058d565b6107ec5760405162461bcd60e51b815260206004820152603e60248201527f4552433732313a20617070726f76652063616c6c6572206973206e6f7420746f60448201527f6b656e206f776e6572206e6f7220617070726f76656420666f7220616c6c00006064820152608401610755565b6107f6838361153b565b505050565b610806335b826115b6565b6108785760405162461bcd60e51b815260206004820152602e60248201527f4552433732313a2063616c6c6572206973206e6f7420746f6b656e206f776e6560448201527f72206e6f7220617070726f7665640000000000000000000000000000000000006064820152608401610755565b6107f6838383611635565b600061088e83610ae8565b82106109025760405162461bcd60e51b815260206004820152602b60248201527f455243373231456e756d657261626c653a206f776e657220696e646578206f7560448201527f74206f6620626f756e64730000000000000000000000000000000000000000006064820152608401610755565b506001600160a01b03919091166000908152600660209081526040808320938352929052205490565b61093361181a565b61093b61187a565b565b6107f683838360405180602001604052806000815250611218565b61096133610800565b6109d35760405162461bcd60e51b815260206004820152602e60248201527f4552433732313a2063616c6c6572206973206e6f7420746f6b656e206f776e6560448201527f72206e6f7220617070726f7665640000000000000000000000000000000000006064820152608401610755565b6109dc816118cc565b50565b60006109ea60085490565b8210610a5e5760405162461bcd60e51b815260206004820152602c60248201527f455243373231456e756d657261626c653a20676c6f62616c20696e646578206f60448201527f7574206f6620626f756e647300000000000000000000000000000000000000006064820152608401610755565b60088281548110610a7157610a71612e1a565b90600052602060002001549050919050565b6000818152600260205260408120546001600160a01b0316806106065760405162461bcd60e51b815260206004820152601860248201527f4552433732313a20696e76616c696420746f6b656e20494400000000000000006044820152606401610755565b60006001600160a01b038216610b665760405162461bcd60e51b815260206004820152602960248201527f4552433732313a2061646472657373207a65726f206973206e6f74206120766160448201527f6c6964206f776e657200000000000000000000000000000000000000000000006064820152608401610755565b506001600160a01b031660009081526003602052604090205490565b610b8a61181a565b61093b60006118d5565b610b9c61181a565b61093b611946565b600b5460ff16158015610bd557506000600f54600160a01b900460ff166003811115610bd257610bd2612ae2565b14155b610c215760405162461bcd60e51b815260206004820152600f60248201527f636f6e74726163742070617573656400000000000000000000000000000000006044820152606401610755565b6123f0610c2d600c5490565b10610c7a5760405162461bcd60e51b815260206004820152601960248201527f616c6c20746f6b656e732068617665206265656e20736f6c64000000000000006044820152606401610755565b60008211610cca5760405162461bcd60e51b815260206004820152601760248201527f6d696e74206174206c65617374206f6e6520746f6b656e0000000000000000006044820152606401610755565b6123f082610cd7600c5490565b610ce19190612e46565b1115610d2f5760405162461bcd60e51b815260206004820152601660248201527f6e6f7420656e6f75676820746f6b656e73206c656674000000000000000000006044820152606401610755565b6000610d3a33610ae8565b90506001600f54600160a01b900460ff166003811115610d5c57610d5c612ae2565b148015610d67575060015b80610daa57506002600f54600160a01b900460ff166003811115610d8d57610d8d612ae2565b148015610daa575034610da7846618de76816d8000612e5e565b11155b80610ded57506003600f54600160a01b900460ff166003811115610dd057610dd0612ae2565b148015610ded575034610dea8466470de4df820000612e5e565b11155b610e395760405162461bcd60e51b815260206004820152601560248201527f696e636f72726563742065746865722076616c756500000000000000000000006044820152606401610755565b6001600f54600160a01b900460ff166003811115610e5957610e59612ae2565b03610f2e57610e6782611348565b610eb35760405162461bcd60e51b815260206004820152601160248201527f696e76616c6964207369676e61747572650000000000000000000000000000006044820152606401610755565b3360009081526010602052604090205460ff1615610f135760405162461bcd60e51b815260206004820152600c60248201527f61206c6f74206f66206e667400000000000000000000000000000000000000006044820152606401610755565b336000908152601060205260409020805460ff191660011790555b6002600f54600160a01b900460ff166003811115610f4e57610f4e612ae2565b036110a957610f5c82611348565b610fa85760405162461bcd60e51b815260206004820152601160248201527f696e76616c6964207369676e61747572650000000000000000000000000000006044820152606401610755565b3360009081526010602052604081205460ff16610fc6576001610fc9565b60025b60ff169050610fd9816002612e46565b610fe38584612e46565b106110305760405162461bcd60e51b815260206004820152600c60248201527f61206c6f74206f66206e667400000000000000000000000000000000000000006044820152606401610755565b3360009081526010602052604090205460ff1615801561105957506110558483612e46565b6002145b8061108757503360009081526010602052604090205460ff16801561108757506110838483612e46565b6003145b156110a757336000908152601160205260409020805460ff191660011790555b505b6003600f54600160a01b900460ff1660038111156110c9576110c9612ae2565b0361118c573360009081526010602052604081205460ff166110ec5760016110ef565b60025b3360009081526011602052604081205460ff9283169350909116611114576001611117565b60025b60ff16905081611128826002612e46565b6111329190612e46565b61113c8685612e46565b106111895760405162461bcd60e51b815260206004820152600c60248201527f61206c6f74206f66206e667400000000000000000000000000000000000000006044820152606401610755565b50505b60005b838110156111cf5760006111a2600c5490565b90506111b2600c80546001019055565b6111bc3382611983565b50806111c781612e7d565b91505061118f565b50505050565b60606001805461061b90612de0565b6111ec61181a565b600d6111f88282612ee5565b5050565b6111f833838361199d565b61120f61181a565b6109dc81611a6b565b61122233836115b6565b6112945760405162461bcd60e51b815260206004820152602e60248201527f4552433732313a2063616c6c6572206973206e6f7420746f6b656e206f776e6560448201527f72206e6f7220617070726f7665640000000000000000000000000000000000006064820152608401610755565b6111cf84848484611ab3565b60006112ab600c5490565b905090565b606061060682611b3c565b6112c361181a565b6001600160a01b03811661133f5760405162461bcd60e51b815260206004820152602660248201527f4f776e61626c653a206e6577206f776e657220697320746865207a65726f206160448201527f64647265737300000000000000000000000000000000000000000000000000006064820152608401610755565b6109dc816118d5565b60006003600f54600160a01b900460ff16600381111561136a5761136a612ae2565b0361137757506001919050565b604080513360601b7fffffffffffffffffffffffffffffffffffffffff00000000000000000000000016602080830191909152825160148184030181526034830184528051908201207f19457468657265756d205369676e6564204d6573736167653a0a333200000000605484015260708084019190915283518084039091018152609090920190925280519101206000906114139084611c37565b90506001600f54600160a01b900460ff16600381111561143557611435612ae2565b0361145157600e546001600160a01b0391821691161492915050565b600f546001600160a01b038281169116148061147a5750600e546001600160a01b038281169116145b9392505050565b60007fffffffff0000000000000000000000000000000000000000000000000000000082167f780e9d63000000000000000000000000000000000000000000000000000000001480610606575061060682611c5b565b6000818152600260205260409020546001600160a01b03166109dc5760405162461bcd60e51b815260206004820152601860248201527f4552433732313a20696e76616c696420746f6b656e20494400000000000000006044820152606401610755565b6000818152600460205260409020805473ffffffffffffffffffffffffffffffffffffffff19166001600160a01b038416908117909155819061157d82610a83565b6001600160a01b03167f8c5be1e5ebec7d5bd14f71427d1e84f3dd0314c0f7b2291e5b200ac8c7c3b92560405160405180910390a45050565b6000806115c283610a83565b9050806001600160a01b0316846001600160a01b0316148061160957506001600160a01b0380821660009081526005602090815260408083209388168352929052205460ff165b8061162d5750836001600160a01b03166116228461069e565b6001600160a01b0316145b949350505050565b826001600160a01b031661164882610a83565b6001600160a01b0316146116c45760405162461bcd60e51b815260206004820152602560248201527f4552433732313a207472616e736665722066726f6d20696e636f72726563742060448201527f6f776e65720000000000000000000000000000000000000000000000000000006064820152608401610755565b6001600160a01b03821661173f5760405162461bcd60e51b8152602060048201526024808201527f4552433732313a207472616e7366657220746f20746865207a65726f2061646460448201527f72657373000000000000000000000000000000000000000000000000000000006064820152608401610755565b61174a838383611d3e565b61175560008261153b565b6001600160a01b038316600090815260036020526040812080546001929061177e908490612fa5565b90915550506001600160a01b03821660009081526003602052604081208054600192906117ac908490612e46565b9091555050600081815260026020526040808220805473ffffffffffffffffffffffffffffffffffffffff19166001600160a01b0386811691821790925591518493918716917fddf252ad1be2c89b69c2b068fc378daa952ba7f163c4a11628f55a4df523b3ef91a4505050565b600b546001600160a01b0361010090910416331461093b5760405162461bcd60e51b815260206004820181905260248201527f4f776e61626c653a2063616c6c6572206973206e6f7420746865206f776e65726044820152606401610755565b611882611d51565b600b805460ff191690557f5db9ee0a495bf2e6ff9c91a7834c1ba4fdd244a5e8aa4e537bd38aeae4b073aa335b6040516001600160a01b03909116815260200160405180910390a1565b6109dc81611da3565b600b80546001600160a01b038381166101008181027fffffffffffffffffffffff0000000000000000000000000000000000000000ff85161790945560405193909204169182907f8be0079c531659141344cd1fd0a4f28419497f9722a3daafe3b4186f6b6457e090600090a35050565b61194e611de3565b600b805460ff191660011790557f62e78cea01bee320cd4e420270b5ea74000d11b0c9f74754ebdbfc544b05a2586118af3390565b6111f8828260405180602001604052806000815250611e36565b816001600160a01b0316836001600160a01b0316036119fe5760405162461bcd60e51b815260206004820152601960248201527f4552433732313a20617070726f766520746f2063616c6c6572000000000000006044820152606401610755565b6001600160a01b03838116600081815260056020908152604080832094871680845294825291829020805460ff191686151590811790915591519182527f17307eab39ab6107e8899845ad3d59bd9653f200f220920489ca2b5937696c31910160405180910390a3505050565b600f80548291907fffffffffffffffffffffff00ffffffffffffffffffffffffffffffffffffffff16600160a01b836003811115611aab57611aab612ae2565b021790555050565b611abe848484611635565b611aca84848484611ebf565b6111cf5760405162461bcd60e51b815260206004820152603260248201527f4552433732313a207472616e7366657220746f206e6f6e20455243373231526560448201527f63656976657220696d706c656d656e74657200000000000000000000000000006064820152608401610755565b6060611b47826114d7565b6000828152600a602052604081208054611b6090612de0565b80601f0160208091040260200160405190810160405280929190818152602001828054611b8c90612de0565b8015611bd95780601f10611bae57610100808354040283529160200191611bd9565b820191906000526020600020905b815481529060010190602001808311611bbc57829003601f168201915b505050505090506000611bea612060565b90508051600003611bfc575092915050565b815115611c2e578082604051602001611c16929190612fbc565b60405160208183030381529060405292505050919050565b61162d8461206f565b6000806000611c4685856120d5565b91509150611c538161211a565b509392505050565b60007fffffffff0000000000000000000000000000000000000000000000000000000082167f80ac58cd000000000000000000000000000000000000000000000000000000001480611cee57507fffffffff0000000000000000000000000000000000000000000000000000000082167f5b5e139f00000000000000000000000000000000000000000000000000000000145b8061060657507f01ffc9a7000000000000000000000000000000000000000000000000000000007fffffffff00000000000000000000000000000000000000000000000000000000831614610606565b611d46611de3565b6107f6838383612306565b600b5460ff1661093b5760405162461bcd60e51b815260206004820152601460248201527f5061757361626c653a206e6f74207061757365640000000000000000000000006044820152606401610755565b611dac816123be565b6000818152600a602052604090208054611dc590612de0565b1590506109dc576000818152600a602052604081206109dc9161297f565b600b5460ff161561093b5760405162461bcd60e51b815260206004820152601060248201527f5061757361626c653a20706175736564000000000000000000000000000000006044820152606401610755565b611e408383612472565b611e4d6000848484611ebf565b6107f65760405162461bcd60e51b815260206004820152603260248201527f4552433732313a207472616e7366657220746f206e6f6e20455243373231526560448201527f63656976657220696d706c656d656e74657200000000000000000000000000006064820152608401610755565b60006001600160a01b0384163b15612055576040517f150b7a020000000000000000000000000000000000000000000000000000000081526001600160a01b0385169063150b7a0290611f1c903390899088908890600401612feb565b6020604051808303816000875af1925050508015611f57575060408051601f3d908101601f19168201909252611f5491810190613027565b60015b61200a573d808015611f85576040519150601f19603f3d011682016040523d82523d6000602084013e611f8a565b606091505b5080516000036120025760405162461bcd60e51b815260206004820152603260248201527f4552433732313a207472616e7366657220746f206e6f6e20455243373231526560448201527f63656976657220696d706c656d656e74657200000000000000000000000000006064820152608401610755565b805181602001fd5b7fffffffff00000000000000000000000000000000000000000000000000000000167f150b7a020000000000000000000000000000000000000000000000000000000014905061162d565b506001949350505050565b6060600d805461061b90612de0565b606061207a826114d7565b6000612084612060565b905060008151116120a4576040518060200160405280600081525061147a565b806120ae846125cd565b6040516020016120bf929190612fbc565b6040516020818303038152906040529392505050565b600080825160410361210b5760208301516040840151606085015160001a6120ff87828585612702565b94509450505050612113565b506000905060025b9250929050565b600081600481111561212e5761212e612ae2565b036121365750565b600181600481111561214a5761214a612ae2565b036121975760405162461bcd60e51b815260206004820152601860248201527f45434453413a20696e76616c6964207369676e617475726500000000000000006044820152606401610755565b60028160048111156121ab576121ab612ae2565b036121f85760405162461bcd60e51b815260206004820152601f60248201527f45434453413a20696e76616c6964207369676e6174757265206c656e677468006044820152606401610755565b600381600481111561220c5761220c612ae2565b0361227f5760405162461bcd60e51b815260206004820152602260248201527f45434453413a20696e76616c6964207369676e6174757265202773272076616c60448201527f75650000000000000000000000000000000000000000000000000000000000006064820152608401610755565b600481600481111561229357612293612ae2565b036109dc5760405162461bcd60e51b815260206004820152602260248201527f45434453413a20696e76616c6964207369676e6174757265202776272076616c60448201527f75650000000000000000000000000000000000000000000000000000000000006064820152608401610755565b6001600160a01b0383166123615761235c81600880546000838152600960205260408120829055600182018355919091527ff3f7a9fe364faab93b216da50a3214154f22a0a2b415b23a84c8169e8b636ee30155565b612384565b816001600160a01b0316836001600160a01b0316146123845761238483826127ef565b6001600160a01b03821661239b576107f68161288c565b826001600160a01b0316826001600160a01b0316146107f6576107f6828261293b565b60006123c982610a83565b90506123d781600084611d3e565b6123e260008361153b565b6001600160a01b038116600090815260036020526040812080546001929061240b908490612fa5565b9091555050600082815260026020526040808220805473ffffffffffffffffffffffffffffffffffffffff19169055518391906001600160a01b038416907fddf252ad1be2c89b69c2b068fc378daa952ba7f163c4a11628f55a4df523b3ef908390a45050565b6001600160a01b0382166124c85760405162461bcd60e51b815260206004820181905260248201527f4552433732313a206d696e7420746f20746865207a65726f20616464726573736044820152606401610755565b6000818152600260205260409020546001600160a01b03161561252d5760405162461bcd60e51b815260206004820152601c60248201527f4552433732313a20746f6b656e20616c7265616479206d696e746564000000006044820152606401610755565b61253960008383611d3e565b6001600160a01b0382166000908152600360205260408120805460019290612562908490612e46565b9091555050600081815260026020526040808220805473ffffffffffffffffffffffffffffffffffffffff19166001600160a01b03861690811790915590518392907fddf252ad1be2c89b69c2b068fc378daa952ba7f163c4a11628f55a4df523b3ef908290a45050565b60608160000361261057505060408051808201909152600181527f3000000000000000000000000000000000000000000000000000000000000000602082015290565b8160005b811561263a578061262481612e7d565b91506126339050600a8361305a565b9150612614565b60008167ffffffffffffffff81111561265557612655612b77565b6040519080825280601f01601f19166020018201604052801561267f576020820181803683370190505b5090505b841561162d57612694600183612fa5565b91506126a1600a8661306e565b6126ac906030612e46565b60f81b8183815181106126c1576126c1612e1a565b60200101907effffffffffffffffffffffffffffffffffffffffffffffffffffffffffffff1916908160001a9053506126fb600a8661305a565b9450612683565b6000807f7fffffffffffffffffffffffffffffff5d576e7357a4501ddfe92f46681b20a083111561273957506000905060036127e6565b8460ff16601b1415801561275157508460ff16601c14155b1561276257506000905060046127e6565b6040805160008082526020820180845289905260ff881692820192909252606081018690526080810185905260019060a0016020604051602081039080840390855afa1580156127b6573d6000803e3d6000fd5b5050604051601f1901519150506001600160a01b0381166127df576000600192509250506127e6565b9150600090505b94509492505050565b600060016127fc84610ae8565b6128069190612fa5565b600083815260076020526040902054909150808214612859576001600160a01b03841660009081526006602090815260408083208584528252808320548484528184208190558352600790915290208190555b5060009182526007602090815260408084208490556001600160a01b039094168352600681528383209183525290812055565b60085460009061289e90600190612fa5565b600083815260096020526040812054600880549394509092849081106128c6576128c6612e1a565b9060005260206000200154905080600883815481106128e7576128e7612e1a565b600091825260208083209091019290925582815260099091526040808220849055858252812055600880548061291f5761291f613082565b6001900381819060005260206000200160009055905550505050565b600061294683610ae8565b6001600160a01b039093166000908152600660209081526040808320868452825280832085905593825260079052919091209190915550565b50805461298b90612de0565b6000825580601f1061299b575050565b601f0160209004906000526020600020908101906109dc91905b808211156129c957600081556001016129b5565b5090565b7fffffffff00000000000000000000000000000000000000000000000000000000811681146109dc57600080fd5b600060208284031215612a0d57600080fd5b813561147a816129cd565b60005b83811015612a33578181015183820152602001612a1b565b838111156111cf5750506000910152565b60008151808452612a5c816020860160208601612a18565b601f01601f19169290920160200192915050565b60208152600061147a6020830184612a44565b600060208284031215612a9557600080fd5b5035919050565b80356001600160a01b0381168114612ab357600080fd5b919050565b60008060408385031215612acb57600080fd5b612ad483612a9c565b946020939093013593505050565b634e487b7160e01b600052602160045260246000fd5b6020810160048310612b1a57634e487b7160e01b600052602160045260246000fd5b91905290565b600080600060608486031215612b3557600080fd5b612b3e84612a9c565b9250612b4c60208501612a9c565b9150604084013590509250925092565b600060208284031215612b6e57600080fd5b61147a82612a9c565b634e487b7160e01b600052604160045260246000fd5b600067ffffffffffffffff80841115612ba857612ba8612b77565b604051601f8501601f19908116603f01168101908282118183101715612bd057612bd0612b77565b81604052809350858152868686011115612be957600080fd5b858560208301376000602087830101525050509392505050565b600082601f830112612c1457600080fd5b61147a83833560208501612b8d565b60008060408385031215612c3657600080fd5b82359150602083013567ffffffffffffffff811115612c5457600080fd5b612c6085828601612c03565b9150509250929050565b600060208284031215612c7c57600080fd5b813567ffffffffffffffff811115612c9357600080fd5b8201601f81018413612ca457600080fd5b61162d84823560208401612b8d565b60008060408385031215612cc657600080fd5b612ccf83612a9c565b915060208301358015158114612ce457600080fd5b809150509250929050565b600060208284031215612d0157600080fd5b81356004811061147a57600080fd5b60008060008060808587031215612d2657600080fd5b612d2f85612a9c565b9350612d3d60208601612a9c565b925060408501359150606085013567ffffffffffffffff811115612d6057600080fd5b612d6c87828801612c03565b91505092959194509250565b60008060408385031215612d8b57600080fd5b612d9483612a9c565b9150612da260208401612a9c565b90509250929050565b600060208284031215612dbd57600080fd5b813567ffffffffffffffff811115612dd457600080fd5b61162d84828501612c03565b600181811c90821680612df457607f821691505b602082108103612e1457634e487b7160e01b600052602260045260246000fd5b50919050565b634e487b7160e01b600052603260045260246000fd5b634e487b7160e01b600052601160045260246000fd5b60008219821115612e5957612e59612e30565b500190565b6000816000190483118215151615612e7857612e78612e30565b500290565b60006000198203612e9057612e90612e30565b5060010190565b601f8211156107f657600081815260208120601f850160051c81016020861015612ebe5750805b601f850160051c820191505b81811015612edd57828155600101612eca565b505050505050565b815167ffffffffffffffff811115612eff57612eff612b77565b612f1381612f0d8454612de0565b84612e97565b602080601f831160018114612f485760008415612f305750858301515b600019600386901b1c1916600185901b178555612edd565b600085815260208120601f198616915b82811015612f7757888601518255948401946001909101908401612f58565b5085821015612f955787850151600019600388901b60f8161c191681555b5050505050600190811b01905550565b600082821015612fb757612fb7612e30565b500390565b60008351612fce818460208801612a18565b835190830190612fe2818360208801612a18565b01949350505050565b60006001600160a01b0380871683528086166020840152508360408301526080606083015261301d6080830184612a44565b9695505050505050565b60006020828403121561303957600080fd5b815161147a816129cd565b634e487b7160e01b600052601260045260246000fd5b60008261306957613069613044565b500490565b60008261307d5761307d613044565b500690565b634e487b7160e01b600052603160045260246000fdfea2646970667358221220e52f1ca0a27171d5ffb91ebeeebd9863b967da2e154cad4765736a518633da9464736f6c634300080f0033",
  "linkReferences": {},
  "deployedLinkReferences": {}
}